{
    "_format": "hh-sol-artifact-1",
    "contractName": "Whitelists",
    "sourceName": "contracts/Whitelist.sol",
    "abi": [
        {
            "inputs": [
                {
                    "internalType": "uint256",
                    "name": "_numTobeWhitelisted",
                    "type": "uint256"
                }
            ],
            "stateMutability": "nonpayable",
            "type": "constructor"
        },
        {
            "inputs": [],
            "name": "MaxWhitelisted",
            "outputs": [
                {
                    "internalType": "uint256",
                    "name": "",
                    "type": "uint256"
                }
            ],
            "stateMutability": "view",
            "type": "function"
        },
        {
            "inputs": [],
            "name": "numWhitelisted",
            "outputs": [
                {
                    "internalType": "uint256",
                    "name": "",
                    "type": "uint256"
                }
            ],
            "stateMutability": "view",
            "type": "function"
        },
        {
            "inputs": [],
            "name": "showWhitelistedStatus",
            "outputs": [
                {
                    "internalType": "bool",
                    "name": "",
                    "type": "bool"
                }
            ],
            "stateMutability": "view",
            "type": "function"
        },
        {
            "inputs": [],
            "name": "whitelistAddress",
            "outputs": [],
            "stateMutability": "nonpayable",
            "type": "function"
        },
        {
            "inputs": [
                {
                    "internalType": "address",
                    "name": "",
                    "type": "address"
                }
            ],
            "name": "whitelisted",
            "outputs": [
                {
                    "internalType": "bool",
                    "name": "",
                    "type": "bool"
                }
            ],
            "stateMutability": "view",
            "type": "function"
        },
        {
            "inputs": [
                {
                    "internalType": "uint256",
                    "name": "",
                    "type": "uint256"
                }
            ],
            "name": "whitelistedAddresses",
            "outputs": [
                {
                    "internalType": "address",
                    "name": "",
                    "type": "address"
                }
            ],
            "stateMutability": "view",
            "type": "function"
        }
    ],
    "bytecode": "0x608060405234801561001057600080fd5b5060405161091e38038061091e8339818101604052810190610032919061007a565b80600081905550506100a7565b600080fd5b6000819050919050565b61005781610044565b811461006257600080fd5b50565b6000815190506100748161004e565b92915050565b6000602082840312156100905761008f61003f565b5b600061009e84828501610065565b91505092915050565b610868806100b66000396000f3fe608060405234801561001057600080fd5b50600436106100625760003560e01c80632b36973214610067578063474d4d591461008557806354dacb96146100a3578063ba4e5c49146100c1578063d936547e146100f1578063e5002a0514610121575b600080fd5b61006f61012b565b60405161007c91906104aa565b60405180910390f35b61008d61017f565b60405161009a91906104de565b60405180910390f35b6100ab610185565b6040516100b891906104de565b60405180910390f35b6100db60048036038101906100d6919061052a565b61018b565b6040516100e89190610598565b60405180910390f35b61010b600480360381019061010691906105df565b6101ca565b60405161011891906104aa565b60405180910390f35b6101296101ea565b005b6000600260003373ffffffffffffffffffffffffffffffffffffffff1673ffffffffffffffffffffffffffffffffffffffff16815260200190815260200160002060009054906101000a900460ff16905090565b60005481565b60015481565b6003818154811061019b57600080fd5b906000526020600020016000915054906101000a900473ffffffffffffffffffffffffffffffffffffffff1681565b60026020528060005260406000206000915054906101000a900460ff1681565b60005460015410610230576040517f08c379a000000000000000000000000000000000000000000000000000000000815260040161022790610669565b60405180910390fd5b600260003373ffffffffffffffffffffffffffffffffffffffff1673ffffffffffffffffffffffffffffffffffffffff16815260200190815260200160002060009054906101000a900460ff16156102bd576040517f08c379a00000000000000000000000000000000000000000000000000000000081526004016102b4906106d5565b60405180910390fd5b60011515600260003373ffffffffffffffffffffffffffffffffffffffff1673ffffffffffffffffffffffffffffffffffffffff16815260200190815260200160002060009054906101000a905050506003339080600181540180825580915050600190039060005260206000200160009091909190916101000a81548173ffffffffffffffffffffffffffffffffffffffff021916908373ffffffffffffffffffffffffffffffffffffffff16021790555060018060008282546103829190610724565b925050819055506103c86040518060400160405280601381526020017f757365722077686974656c697374656420746f00000000000000000000000000815250336103ca565b565b61046282826040516024016103e0929190610802565b6040516020818303038152906040527f319af333000000000000000000000000000000000000000000000000000000007bffffffffffffffffffffffffffffffffffffffffffffffffffffffff19166020820180517bffffffffffffffffffffffffffffffffffffffffffffffffffffffff8381831617835250505050610466565b5050565b60008151905060006a636f6e736f6c652e6c6f679050602083016000808483855afa5050505050565b60008115159050919050565b6104a48161048f565b82525050565b60006020820190506104bf600083018461049b565b92915050565b6000819050919050565b6104d8816104c5565b82525050565b60006020820190506104f360008301846104cf565b92915050565b600080fd5b610507816104c5565b811461051257600080fd5b50565b600081359050610524816104fe565b92915050565b6000602082840312156105405761053f6104f9565b5b600061054e84828501610515565b91505092915050565b600073ffffffffffffffffffffffffffffffffffffffff82169050919050565b600061058282610557565b9050919050565b61059281610577565b82525050565b60006020820190506105ad6000830184610589565b92915050565b6105bc81610577565b81146105c757600080fd5b50565b6000813590506105d9816105b3565b92915050565b6000602082840312156105f5576105f46104f9565b5b6000610603848285016105ca565b91505092915050565b600082825260208201905092915050565b7f77686974656c6973742066756c6c000000000000000000000000000000000000600082015250565b6000610653600e8361060c565b915061065e8261061d565b602082019050919050565b6000602082019050818103600083015261068281610646565b9050919050565b7f616c72656164792077686974656c697374656400000000000000000000000000600082015250565b60006106bf60138361060c565b91506106ca82610689565b602082019050919050565b600060208201905081810360008301526106ee816106b2565b9050919050565b7f4e487b7100000000000000000000000000000000000000000000000000000000600052601160045260246000fd5b600061072f826104c5565b915061073a836104c5565b9250827fffffffffffffffffffffffffffffffffffffffffffffffffffffffffffffffff0382111561076f5761076e6106f5565b5b828201905092915050565b600081519050919050565b60005b838110156107a3578082015181840152602081019050610788565b838111156107b2576000848401525b50505050565b6000601f19601f8301169050919050565b60006107d48261077a565b6107de818561060c565b93506107ee818560208601610785565b6107f7816107b8565b840191505092915050565b6000604082019050818103600083015261081c81856107c9565b905061082b6020830184610589565b939250505056fea2646970667358221220aea52670838b5f6865bd00e23b8a79648cba458fb7ff78c01dc145ab5cc2921e64736f6c634300080a0033",
    "linkReferences": {},
    "deployedLinkReferences": {}
}